{
  "_format": "hh-sol-artifact-1",
  "contractName": "Token",
  "sourceName": "contracts/Token.sol",
  "abi": [
    {
      "inputs": [],
      "stateMutability": "nonpayable",
      "type": "constructor"
    },
    {
      "inputs": [
        {
          "internalType": "address",
          "name": "account",
          "type": "address"
        }
      ],
      "name": "balanceOf",
      "outputs": [
        {
          "internalType": "uint256",
          "name": "",
          "type": "uint256"
        }
      ],
      "stateMutability": "view",
      "type": "function"
    },
    {
      "inputs": [],
      "name": "name",
      "outputs": [
        {
          "internalType": "string",
          "name": "",
          "type": "string"
        }
      ],
      "stateMutability": "view",
      "type": "function"
    },
    {
      "inputs": [],
      "name": "owner",
      "outputs": [
        {
          "internalType": "address",
          "name": "",
          "type": "address"
        }
      ],
      "stateMutability": "view",
      "type": "function"
    },
    {
      "inputs": [],
      "name": "symbol",
      "outputs": [
        {
          "internalType": "string",
          "name": "",
          "type": "string"
        }
      ],
      "stateMutability": "view",
      "type": "function"
    },
    {
      "inputs": [
        {
          "internalType": "address",
          "name": "to",
          "type": "address"
        },
        {
          "internalType": "uint256",
          "name": "amount",
          "type": "uint256"
        }
      ],
      "name": "transferToken",
      "outputs": [],
      "stateMutability": "nonpayable",
      "type": "function"
    }
  ],
  "bytecode": "0x60806040526040518060400160405280600a81526020017f566563746f726d696b65000000000000000000000000000000000000000000008152506000908051906020019061004f92919061013a565b506040518060400160405280600381526020017f56454300000000000000000000000000000000000000000000000000000000008152506001908051906020019061009b92919061013a565b5060646002553480156100ad57600080fd5b50600254600460003373ffffffffffffffffffffffffffffffffffffffff1673ffffffffffffffffffffffffffffffffffffffff1681526020019081526020016000208190555033600360006101000a81548173ffffffffffffffffffffffffffffffffffffffff021916908373ffffffffffffffffffffffffffffffffffffffff16021790555061023e565b828054610146906101dd565b90600052602060002090601f01602090048101928261016857600085556101af565b82601f1061018157805160ff19168380011785556101af565b828001600101855582156101af579182015b828111156101ae578251825591602001919060010190610193565b5b5090506101bc91906101c0565b5090565b5b808211156101d95760008160009055506001016101c1565b5090565b600060028204905060018216806101f557607f821691505b602082108114156102095761020861020f565b5b50919050565b7f4e487b7100000000000000000000000000000000000000000000000000000000600052602260045260246000fd5b6107838061024d6000396000f3fe608060405234801561001057600080fd5b50600436106100575760003560e01c806306fdde031461005c5780631072cbea1461007a57806370a08231146100965780638da5cb5b146100c657806395d89b41146100e4575b600080fd5b610064610102565b60405161007191906104e3565b60405180910390f35b610094600480360381019061008f9190610412565b610190565b005b6100b060048036038101906100ab91906103e9565b6102c2565b6040516100bd9190610525565b60405180910390f35b6100ce61030b565b6040516100db91906104c8565b60405180910390f35b6100ec610331565b6040516100f991906104e3565b60405180910390f35b6000805461010f90610655565b80601f016020809104026020016040519081016040528092919081815260200182805461013b90610655565b80156101885780601f1061015d57610100808354040283529160200191610188565b820191906000526020600020905b81548152906001019060200180831161016b57829003601f168201915b505050505081565b80600460003373ffffffffffffffffffffffffffffffffffffffff1673ffffffffffffffffffffffffffffffffffffffff168152602001908152602001600020541015610212576040517f08c379a000000000000000000000000000000000000000000000000000000000815260040161020990610505565b60405180910390fd5b80600460003373ffffffffffffffffffffffffffffffffffffffff1673ffffffffffffffffffffffffffffffffffffffff168152602001908152602001600020600082825461026191906105b2565b9250508190555080600460008473ffffffffffffffffffffffffffffffffffffffff1673ffffffffffffffffffffffffffffffffffffffff16815260200190815260200160002060008282546102b7919061055c565b925050819055505050565b6000600460008373ffffffffffffffffffffffffffffffffffffffff1673ffffffffffffffffffffffffffffffffffffffff168152602001908152602001600020549050919050565b600360009054906101000a900473ffffffffffffffffffffffffffffffffffffffff1681565b6001805461033e90610655565b80601f016020809104026020016040519081016040528092919081815260200182805461036a90610655565b80156103b75780601f1061038c576101008083540402835291602001916103b7565b820191906000526020600020905b81548152906001019060200180831161039a57829003601f168201915b505050505081565b6000813590506103ce8161071f565b92915050565b6000813590506103e381610736565b92915050565b6000602082840312156103fb57600080fd5b6000610409848285016103bf565b91505092915050565b6000806040838503121561042557600080fd5b6000610433858286016103bf565b9250506020610444858286016103d4565b9150509250929050565b610457816105e6565b82525050565b600061046882610540565b610472818561054b565b9350610482818560208601610622565b61048b816106e5565b840191505092915050565b60006104a3600f8361054b565b91506104ae826106f6565b602082019050919050565b6104c281610618565b82525050565b60006020820190506104dd600083018461044e565b92915050565b600060208201905081810360008301526104fd818461045d565b905092915050565b6000602082019050818103600083015261051e81610496565b9050919050565b600060208201905061053a60008301846104b9565b92915050565b600081519050919050565b600082825260208201905092915050565b600061056782610618565b915061057283610618565b9250827fffffffffffffffffffffffffffffffffffffffffffffffffffffffffffffffff038211156105a7576105a6610687565b5b828201905092915050565b60006105bd82610618565b91506105c883610618565b9250828210156105db576105da610687565b5b828203905092915050565b60006105f1826105f8565b9050919050565b600073ffffffffffffffffffffffffffffffffffffffff82169050919050565b6000819050919050565b60005b83811015610640578082015181840152602081019050610625565b8381111561064f576000848401525b50505050565b6000600282049050600182168061066d57607f821691505b60208210811415610681576106806106b6565b5b50919050565b7f4e487b7100000000000000000000000000000000000000000000000000000000600052601160045260246000fd5b7f4e487b7100000000000000000000000000000000000000000000000000000000600052602260045260246000fd5b6000601f19601f8301169050919050565b7f496e656e6f75676820746f6b656e730000000000000000000000000000000000600082015250565b610728816105e6565b811461073357600080fd5b50565b61073f81610618565b811461074a57600080fd5b5056fea2646970667358221220bf2e85effd045ed5e57ad4af6ad40dad3d8279e989cca8750860dee9d24d192564736f6c63430008030033",
  "linkReferences": {},
  "deployedLinkReferences": {}
}